:020000040800F2
:10000000801F0024C143000803A80008AD43000876
:10001000AD430008AD430008AD43000800000000F8
:10002000000000000000000000000000094400087B
:10003000AD43000800000000FD450008B95D000860
:100040007946000879460008794600087946000894
:100050007946000879460008794600087946000884
:100060007946000879460008794600087946000874
:100070007946000879460008794600087946000864
:100080007946000879460008794600087946000854
:100090007946000879460008794600087946000844
:1000A0007946000879460008794600087946000834
:1000B0007946000879460008794600087946000824
:1000C0007946000879460008794600087946000814
:1000D0007946000879460008794600087946000804
:0400E0007946000855
:1000E8007BB972B90029BEBF00204FF0004106E07D
:1000F80008BF00281CBF6FF000414FF0FF3000F030
:1001080057B8ADF1080C6DE904CE002909DB002BC6
:100118001ADB00F069F8DDF804E0DDE9022304B039
:100128007047404261EB4101002B1BDB00F05CF89B
:10013800DDF804E0DDE9022304B0404261EB41014F
:10014800524263EB43037047524263EB430300F0B0
:100158004BF8DDF804E0DDE9022304B0404261EB2E
:1001680041017047524263EB430300F03DF8DDF86C
:1001780004E0DDE9022304B0524263EB4303704715
:1001880053B94AB9002908BF00281CBF4FF0FF31F6
:100198004FF0FF3000F00CB8ADF1080C6DE904CE5B
:1001A80000F022F8DDF804E0DDE9022304B070472E
:1001B800704700BF10F8012B11F8013B012A28BF36
:1001C8009A42F7D0D01A7047034611F8012B03F86A
:1001D800012B002AF9D17047034613F8012B002A96
:1001E800FBD1181A013870472DE9F0478C468E4626
:1001F800089E154604461946002B40F0D0807245EB
:1002080047D9B2FA82F74FB1C7F120030EFA07FCBB
:1002180020FA03F3BD4043EA0C0CBC404FEA154EEC
:10022800A8B2BCFBFEF8230C0EFB18CC08FB00F9A7
:1002380043EA0C43994528D9EB1808F1FF3204D258
:10024800994502D9A8F102022B44A3EB0903A4B2F1
:10025800B3FBFEFC0EFB1C330CFB00F044EA03442A
:10026800A04214D92C190CF1FF3304D2A04202D9B0
:10027800ACF102032C44241A43EA02401EB1FC40AC
:10028800002334607360BDE8F0874246DDE76346CB
:10029800F1E7002A79D0B2FA82F3002B3FD0194651
:1002A800C1F1200302FA01F52EFA03F20EFA01FE5B
:1002B80020FA03F343EA0E034FEA154E00FA01F45D
:1002C800B2FBFEFCAFB20EFB1C201A0C0CFB07F8AD
:1002D80042EA004290455AD9AA180CF1FF3004D2DC
:1002E800904502D9ACF102002A44A2EB08029BB265
:1002F800B2FBFEFC0EFB1C220CFB07F743EA024391
:100308009F4246D9EB180CF1FF3204D29F4202D922
:10031800ACF102022B44DB1B42EA004202E0AEEBE6
:10032800020301224FEA154EAFB2B3FBFEFC200CCC
:100338000EFB1C330CFB07F840EA034398452AD907
:10034800EB180CF1FF3004D2984502D9ACF1020049
:100358002B44A3EB0803A4B2B3FBFEFC0EFB1C3337
:100368000CFB07F744EA0344A74216D92C190CF1F1
:10037800FF3304D2A74202D9ACF102032C44E41B98
:1003880043EA00400F46114678E71F2188E7604698
:10039800ABE76246BFE76046DBE76346EFE77345D6
:1003A80006D916B9002108466DE7C6E9000EF9E737
:1003B800B3FA83F787B9734501D3824207D8841A01
:1003C8006EEB030301209C461EB900215BE738460B
:1003D800FAE7C6E9004CF8E7C7F1200CBB4022FA5F
:1003E8000CF51D4320FA0CF12EFA0CF30EFA07FE59
:1003F80041EA0E014FEA154900FA07F4B3FBF9F890
:100408001FFA85FE09FB18300B0C08FB0EFA43EAAD
:1004180000439A4502FA07F240D9EB1808F1FF3079
:1004280004D29A4502D9A8F102002B44A3EB0A038F
:1004380089B2B3FBF9F809FB183308FB0EFE41EA51
:1004480003418E452CD9691808F1FF3304D28E4533
:1004580002D9A8F10203294443EA0040A0FB02980C
:10046800A1EB0E014145CE46434602D306D14C4589
:1004780004D2B9EB020E68EB05030138002EA4D0B4
:10048800B4EB0E0261EB030101FA0CFC22FA07F34C
:100498004CEA0303F940C6E9003196E74046C5E750
:1004A8004346D9E7000000002DE9F047044688B02C
:1004B800884617460AF075FE0A220023FFF760FEF9
:1004C800B8F1010F06460D4607D102460B462046F5
:1004D800274909F01FFB002011E07F6825483946AD
:1004E800FFF768FE70B139462348FFF763FE48B14D
:1004F80020463A46214909F029FB6FF0040008B06C
:10050800BDE8F0873046294617A3D3E90023FFF753
:10051800E7FD06460D4610461946194A0023FFF71F
:10052800DFFD80460F46104619464EF6602200232E
:10053800FFF7D6FD82468946104619464FF47A726F
:100548000023FFF7CDFDCDE902A9CDE90623CDE9CA
:10055800040132462B460B492046CDE9008709F0B5
:10056800D9FAB8E7AFF30080005C26050000000068
:10057800C3CA0008D4CA0008D7CA0008E0CA0008DD
:1005880080EE3600F8CA000812F0FC6F13462DE919
:10059800F041D0E9014706690ED044494FF47D7314
:1005A800434A444809F0ECF8434809F0E9F84FF4A5
:1005B8007D713F4809F0DBF802F03002302A0CD197
:1005C8003E4940F2F7333A4A3A4809F0D9F83C48EC
:1005D80009F0D6F840F2F731EBE73A4A3A4D1A40BB
:1005E800AA420CD1394940F2FB33314A314809F06B
:1005F800C7F8374809F0C4F840F2FB31D9E703F0EF
:100608000602042A09D1334940F2FE33284A294810
:1006180009F0B6F840F2FE31CBE713F440221ED0C1
:100628009D030CD42C4940F20143214A214809F08A
:10063800A7F82A4809F0A4F840F20141B9E7B2F551
:10064800402F0CD1264940F20543194A194809F0B0
:1006580097F8244809F094F840F20541A9E7DD022B
:1006680005D522B143F3000202F44022534001258C
:10067800246823F480128D4025420CD11A4940F297
:1006880011430B4A0B4809F07BF8184809F078F831
:1006980040F211418DE73468DB074CBF2C43AC4373
:1006A80034603B68BDE8F041184700BF0FC200083E
:1006B800DEC100087EC200089BC20008BFC2000855
:1006C800F8C20008020003000200010035C3000858
:1006D80082C30008D1C3000804C4000853C400083A
:1006E8008EC40008DBC4000807C5000845C500081B
:1006F800012310B503FA01F143681B6819420ED1B2
:10070800094940F2CB63094A094809F039F8094810
:1007180009F036F840F2CB61044809F028F88368FC
:10072800BDE810405B69184707C50008DEC100082E
:100738007EC2000845C5000808B51A480AF06DFCD5
:1007480020B9194809F006F8002008BD15480AF034
:1007580064FC0028F5D00B214FF4B0121148FFF7C4
:1007680013FF011E03DA114808F0F4FFECE7022139
:100778004FF4D0120B48FFF707FF011E01DA0C48AF
:10078800F2E70C4808F0E6FF0B210648FFF7B0FF38
:1007980002210448FFF7ACFF002141F2883007F03E
:1007A80073F9F1E7E8B5000857C5000871C50008F6
:1007B80094C50008B8C50008B2F5802F2DE9F843A4
:1007C8000ED33E494FF437733D4A3E4808F0D8FFF0
:1007D8003D4808F0D5FF4FF43771394808F0C7FF96
:1007E800042A0CD8394940F2E323354A354808F041
:1007F800C7FF374808F0C4FF40F2E321EDE7043AA9
:10080800CD1D114425F0070521F00706A6EB0508C4
:10081800B8F1170F4FEAD8070CD82E494FF43B739D
:10082800274A284808F0ACFF294808F0A9FF4FF4E8
:100838003B71D2E7B7FA87F44FF000090560C4F1BD
:100848002002C4F12404AF60A400C5F80C9007345A
:10085800E408631CBB420CD91F4940F20233184A12
:10086800184808F08DFF1A4808F08AFF40F2023154
:10087800B3E74946920005F110000AF02AFDA5F8F1
:100888000090A2B205EBC401530043F001036B8052
:100898003B1B9BB258004880214625F83420284647
:1008A800A6F8029025F8083005EBC7035A8842F0ED
:1008B80001025A80BDE8F84308F0E8BD55C60008B3
:1008C800FAC500087EC200086BC6000882C6000888
:1008D800A3C60008BCC60008E5C6000808B558B994
:1008E800094940F27D130948094A08F049FF40F2D6
:1008F8007D11074808F03BFF8068064B98428CBF83
:100908000020012008BD00BF41C700087EC20008C2
:1009180010C70008FFC99A3BF8B50D46044610B148
:10092800FFF7DCFF58B9254940F2B913244A254896
:1009380008F026FF40F2B911214808F018FF1DB150
:100948002846FFF7CBFF48B91F494FF4DD731C4A0F
:100958001C4808F015FF4FF4DD71EDE7D4E90032CB
:10096800D5E90001002A18DA002908DA5F424FF0B9
:10097800004666EB0206B84271EB06061CDB1B1844
:10098800204642EB0102C4E90032A368AA68134476
:10099800A360BDE8F84000F017BA53EA0206EED0AB
:1009A800012871F10006EADBDE4386426FF000465B
:1009B800A6EB02068E41E1E70020F8BD53C7000808
:1009C80010C700087EC200087EC7000838B5044674
:1009D80040B926496A23264A264808F0D1FE6A21EA
:1009E800234816E0EFF31185102383F31288BFF331
:1009F8006F8F214807F052FB68B984231F4A2049AA
:100A08001C4808F0BDFE1C491E4808F0B9FE8421A8
:100A18001A4808F0ACFE184807F064FB1A4B0FCBD5
:100A280084E80F00144807F047FB68B94FF499733E
:100A3800124A16490F4808F0A3FE0F49144808F057
:100A48009FFE4FF49971E3E785F31188BFF36F8F29
:100A58002046FFF743FF38B90E497023044A05487A
:100A680008F08EFE7021BBE738BD00BFCBC7000879
:100A7800A9C700087EC20008C8040024DDC7000812
:100A88000AC800081FC80008E800002435C8000884
:100A98004CC8000861C8000801281FB50C4605D0DD
:100AA800042829D06FF0150004B010BD0AF079FBB6
:100AB80042F210720023FFF763FB174B5A43C4E955
:100AC8000001A2606846FFF781FF69462046FFF7EC
:100AD80023FF18B9114B0FCB84E80F002046FFF70E
:100AE800FDFEB0B90E4963230E480F4A08F048FED0
:100AF80063210D4808F03BFE0AF053FB42F21072E6
:100B08000023FFF73DFB044B5A43C4E90001A260F0
:100B1800E4E70020C8E700BFA086010050BA00083B
:100B280077C800087EC20008A9C7000801287FB559
:100B38000D4654D10846FFF7D1FE00284FD00AF0E1
:100B480030FB42F210720023FFF71AFB4042254B9C
:100B580061EB41015343CDE900016846029300F07F
:100B680033F929466846FFF7D7FEEFF311861023BD
:100B780083F31288BFF36F8F1B4807F08FFA68B9A9
:100B880084231A4A1A491B4808F0FAFD16491A48DC
:100B980008F0F6FD8421154808F0E9FD124807F031
:100BA800A1FA164D9DE80F0085E80F000E4807F0E2
:100BB80083FA68B94FF499730C4A11490D4808F043
:100BC800DFFD09490F4808F0DBFD4FF49971E2E7B2
:100BD80086F31188BFF36F8F002004B070BD6FF0EB
:100BE8001500FAE76079FEFFC8040024DDC7000895
:100BF8000AC800087EC200081FC80008E8000024D0
:100C080035C800084CC80008014B1B68184700BFCE
:100C180000000024014B1860704700BF000000244A
:100C280030B5044685B00D461022002168460AF00A
:100C380050FB02232A4621468DF802306846034BB2
:100C4800019308F09DF905B030BD00BF110C0008F4
:100C580080B505460E461746984606F0A1FFDFF810
:100C680044900346424603F015FD394649F80030E2
:100C780004463046A8470C4B1B7873B90B4940F221
:100C880046330B4A0B4808F07BFD0B4808F078FD0B
:100C980040F24631064808F06AFD54F8090003F0AE
:100CA80093FC00BF080000006C090024B8C80008C5
:100CB8008DC800087EC20008CBC800082DE9F8439B
:100CC80040F26C73446905690646E117E41805F1BA
:100CD8000105C76841F10001022D07F1FF378CBFFC
:100CE80000230123E41A61F1000100294EDA6FF4B0
:100CF800C7704FF4C8720023201861F10001FFF794
:100D0800EFF9254B4FF03C0E032D03FB0044024640
:100D180034BF09206FF00200D6E90083B6680544A5
:100D28004FEAE37C99469920634645430520C6FB74
:100D38000E93A9FB0EC602350EFB0366A30840F20C
:100D48006D1E1CEB080C0EFB043346EBE8763B44A7
:100D58006427B4FBF7F4B5FBF0F51B1B0F4C2B44D1
:100D6800A2FB042004FB010198180D4A41F100037D
:100D780080180C4A63F10003A0FB020102FB031177
:100D880010EB0C0041EB0601BDE8F8834FF4C87284
:100D980000232046B3E700BF70FEFFFFB13A020010
:100DA8009405F5FF8051010010B5FFF787FF002477
:100DB80002460B46034903F06DFC445010461946A1
:100DC80010BD00BF0C000000F8B548B92749C92379
:100DD800274A284808F0D4FCC921254808F0C7FC50
:100DE8008268254EB24217DD244CD0E9003792FBC9
:100DF800F4F4012B4FEAE47177F100051EDA1B19B0
:100E08001F4D41EB070105FB0422B2428260C0E995
:100E1800003122D80120F8BD002AFBDAB41A174F96
:100E2800D0E90031B4FBF7F4002910DA01F10045EC
:100E3800A34275F100050ADA0020ECE7DD43A5427C
:100E48006FF00045A5EB07058D41D8DAF4E71B1BC9
:100E580007FB042261F10001D7E70A49F023044A9D
:100E6800044808F08DFCF021B7E700BF41C700082F
:100E7800EDC800087EC20008FFC99A3B00CA9A3B29
:100E8800003665C477C8000808B500F0B7F80A4905
:100E980001220023416109490361C0E900220A6077
:100EA80007490A60074A1360074A1360074AC0E9FE
:100EB8000233136008BD00BF0DEB000820000024BA
:100EC8001C000024D4040024D0040024CC040024F2
:100ED8002DE9F04781468846174600F08FF8C36829
:100EE80004461BB943691A78002A3ED10023E360FF
:100EF80063684B4558F8232008DB314B6361204673
:100F080000F060F84FF0FF30BDE8F087511C6161D8
:100F180092F800A0BAF12D0FEFD1951C65615678B3
:100F28002D2EA66004D1927872B901336360E4E78C
:100F380056B9234D5146384665610AF0E2F9002852
:100F4800DDD05646C4F808A0314638460AF0D9F92B
:100F58003A2E00D070B92B7813B9636801336360F7
:100F6800204600F02FF83F20CEE75D1C45611E7833
:100F78008660E9E743783A2B0BD0002323612B786E
:100F880013B9636801336360204600F01BF8A0685A
:100F9800BAE72B780A4A33B9636801339945636025
:100FA80004DD58F82350C4E90452EAE76261204698
:100FB8003D783A2DD5D100F005F82846A4E700BFC2
:100FC8000DEB00080168084A084B11604168084A9F
:100FD80011608168074A1160074AC1681160026997
:100FE8001A6004F039B800BF20000024CC040024A3
:100FF8001C000024D4040024D004002400487047B6
:10100800040000242DE9F34106460F4615464FF02B
:1010180000082A4601A9304608F0D7FB044640B12B
:10102800024639460198A0440AF02CF92D1B2744A2
:10103800EFD14246311D304608F0E5FB48B107497B
:1010480048230748074A08F09BFB4821054808F051
:101058008EFB404602B0BDE8F08100BF40C90008E1
:101068007EC2000815C900082DE9F34107460E465F
:1010780015464FF000082A4601A9384608F0B4FB87
:10108800044648B12EB102463046264401990AF07A
:10109800F9F82D1BA044EED1424607F10A01384663
:1010A80008F0B1FB48B1074963230748074A08F02D
:1010B80067FB6321054808F05AFB404602B0BDE8CB
:1010C800F08100BF40C900087EC2000815C90008A9
:1010D800054B00205A6822F002025A605A6822F032
:1010E80001025A60704700BF0010005C08B54168F3
:1010F80005480C3183681B681BB1984700EAE0700B
:1011080008BD6FF05700F9E728B50008192810B591
:1011180002D90024204610BD044B53F82040204635
:1011280009F07BFF0028F5D1F3E700BF14BC0008E5
:1011380008B503F0E3FA03F0B3FA0C4B0C4A1A6053
:101148000C4AD36823F03F0343F00403D3600A4BEF
:101158001A6841F20303B3EB124F06D1074AD2F8DB
:10116800083143F00103C2F8083108BD68000024C3
:101178000090D003004802580010005C0080005125
:10118800014B036002207047A8BC000810B5044654
:1011980004F044FF03490246204608F0BBFC002047
:1011A80010BD00BF6ECA000837B5134600220546B9
:1011B8000A21019201AA586802F046F8019C4CB92C
:1011C80020EAE0700A21A0FB010106F05DFC204640
:1011D80003B030BD22460349284608F0B7FC019CFD
:1011E800F5E700BF9ACA0008034A044908B508F0A1
:1011F80091FC002008BD00BF8ACB000890CB0008F6
:10120800002307B50090694604488DF8043009F0BA
:10121800A7FF9DF8040003B05DF804FBE9980008F7
:1012280070B5044607F04CFA064604F0A5FE0546DC
:10123800304607F06FFA2A462046064908F06AFC4D
:101248002046054908F066FC2146044809F08BFF52
:10125800002070BDD2CB0008F1CB0008691200084D
:1012680070B58EB004460D46D0F8A06009F007FFAF
:1012780003462B4A127872B92A4940F246332A4A61
:101288002A4808F07DFA2A4808F07AFA40F24631EE
:10129800254808F06CFA274A03F0FCF91158264A49
:1012A8002648002B08BF1346254A00938C4218BFD6
:1012B800024623462846234908F02CFC28462249A2
:1012C800D4E90A23CDE9002394F90E30A28908F065
:1012D80021FC06A92022204605F0DAFBA36E02466F
:1012E8001A49284608F016FC05A9204609F0D5FE3B
:1012F800024628B11649284608F00CFC0EB070BD0D
:10130800059B64222846F11A4A4300911149B2FB11
:10131800F6F2CDE90162324608F0FCFBEEE700BFC9
:101328006C090024B8C800088DC800087EC20008EF
:10133800CBC8000808000000FBCB0008E9D700086C
:10134800A3F20008FECB00080ACC000836CC00083F
:101358004DCC00087ACC000870B590B00546202224
:10136800002108AE304609F0B4FF1A222021304689
:1013780009F0AFFF2946164809F0F5FE07AA4FF411
:101388000061144809F07DFE044648B11249502313
:101398001248134A08F0F4F95021114808F0E7F907
:1013A800079A64230096C2F500614B43DB0A059354
:1013B8004FF40063CDE90313CDE90132094903462F
:1013C800094A284608F0A6FB204610B070BD00BFA9
:1013D800F51300080012002440C900087EC2000866
:1013E800CBCC000812CD0008C011002470B504460B
:1013F80088B00D46D0F8A06007A909F04EFE024655
:1014080028B10F49284608F085FB08B070BD204672
:1014180009F035FE079B64220096F11A4A43B2FB95
:10142800F6F2CDE90131074B0749002818BF0346FA
:101438002846CDE90362224608F06CFBE5E700BFC9
:101448004DCC0008FBCB00085BCD000838B513462F
:10145800054610220021586807F0A0FC0446FFF753
:10146800CFFE38B922461749284608F06FFB6FF0BF
:10147800150038BD144B1B7873B9144940F2463334
:10148800134A144808F07CF9134808F079F940F237
:1014980046310F4808F06BF9104B03F0FBF81B5866
:1014A8009C4204D10E49284608F050FBDFE720464D
:1014B80005F02EFE284622460A4908F02BFB00209C
:1014C800D7E700BFBFCD00086C090024B8C80008E2
:1014D8008DC800087EC20008CBC8000808000000BC
:1014E800DACD000802CE000838B5134605461022AA
:1014F8000021586807F052FC0446FFF781FE38B90E
:1015080022461749284608F021FB6FF0150038BD20
:10151800144B1B7873B9144940F24633134A1448E4
:1015280008F02EF9134808F02BF940F246310F481D
:1015380008F01DF9104B03F0ADF81B589C4204D17C
:101548000E49284608F002FBDFE7204605F0E2FED8
:10155800284622460A4908F0DDFA0020D7E700BFEE
:10156800BFCD00086C090024B8C800088DC8000861
:101578007EC20008CBC800080800000041CE000861
:1015880067CE000838B51346054610220021586872
:1015980007F004FC0446FFF733FE38B92246174922
:1015A800284608F0D3FA6FF0150038BD144B1B78A5
:1015B80073B9144940F24633134A144808F0E0F866
:1015C800134808F0DDF840F246310F4808F0CFF82C
:1015D800104B03F05FF81B589C4204D10E49284673
:1015E80008F0B4FADFE7204602F0EEFF284622466C
:1015F8000A4908F08FFA0020D7E700BFBFCD0008DE
:101608006C090024B8C800088DC800087EC200080C
:10161800CBC8000808000000A2CE0008C7CE00080A
:1016280010B50C46002108F0FAFC00B10068002350
:10163800024A2060E360C4E9012310BDE7CF000837
:1016480010B50C46002108F0EEFC00B1006800233C
:10165800024A2060E360C4E9012310BDE7CF000817
:1016680070B505465068144608F0E1FC064640B9D6
:1016780062686FF012040F49284608F067FA20469E
:1016880070BD09F0CAFC30B162680B4928460024D5
:1016980008F032FAF3E7304609F0B6FC626804460F
:1016A80028B103460549284608F050FAE7E70449F7
:1016B800ECE700BFFFCE000814CF000836CF0008C3
:1016C80063CF00082DE9F04F8FB004468846914655
:1016D80001A804F0D7FD019F2D4A082107EB401708
:1016E800204608F0FCF9019EBE4203D300200FB04B
:1016F800BDE8F08F35680DB12B7833B902AD3346AC
:10170800244A302102A807F0ABFAB8F1020F07D13A
:10171800D9F80410284609F032FE08B92036E3E764
:101728002B461D4A0821204608F0D9F9304609F011
:1017380074FC1A4A1A4B0821002808BF1346194A94
:10174800204608F0CCF9F369002BE7D01D68002D7E
:10175800E4D02B68002BE1D0AB464FF0000A124AC8
:101768000821204608F0BBF92B68534505D80F4AD5
:101778000821204608F0B3F9D0E75BF8043F0821B8
:101788000B4A20460AF1010A08F0A9F9ECE700BF64
:1017980096CF0008A0CF0008A5CF00088DCF00087D
:1017A80087CF00080DCF0008AACF00080CEB00086F
:1017B800A6CF0008F7B5137806460F4615463A2B0C
:1017C80014D1541C23783A2B28D101340A2201A9B8
:1017D800204607F06FFA019A03463860A24217D0F4
:1017E8001078A8B93C2B15D915490EE00A2201A991
:1017F800284607F05FFA019CB860AC4208D023780D
:101808003A2B05D1172807D90E49304608F09EF91A
:101818006FF0150003B0F0BD0134D3E70A2201A927
:10182800204607F047FA019B7860A342F0D01A7867
:101838003A2AEDD13B2801D90349E6E75C1CC5E704
:101848004FD0000831D000083FD000082DE9F04102
:1018580094B00D460446012006A91746FFF71CF967
:101868000BA906A807F04EF9032D55D17D680A2269
:1018780005A9284607F01EFA059E8046B54215D0F0
:1018880032782D2A12D101360A2205A9304607F0EE
:1018980011FA059B9E4209D01A782D2A06D1451EB9
:1018A8000B2D0CD92E49204608F050F9204608F097
:1018B8005BF96FF01505284614B0BDE8F0815E1C91
:1018C8000A2205A9304607F0F5F9059B9E42EDD09E
:1018D8001B78002BEAD1431E1E2B01D92149E2E7D0
:1018E800A8F26C73BA680E90CDE90F530BA9204685
:1018F800FFF760FF0028D9D10BA8FFF755FAB1F11F
:10190800FF3F08BFB0F1FF3FCDE9060108D11649F6
:10191800204608F01BF9CCE7022DC7D17A68E5E725
:1019280000230893012006A9FFF700F9054628B10E
:1019380002460E49204608F009F9BAE70B9B2046F3
:10194800109A03930C9B02F26C72094902930D9B47
:1019580001930E9B00930F9B013308F0DBF8AAE775
:101968005FD000086ED000087BD00008A4D0000823
:10197800BBD0000810B592B00446012004A9FFF7B7
:101988008BF809A904A807F0BDF8099B0E9A204610
:1019980003930A9B02F26C72064902930B9B019314
:1019A8000C9B00930D9B013308F0B4F8002012B093
:1019B80010BD00BFBBD000082DE9F0411446884691
:1019C800074610220021606807F0E8F9B8F1020F15
:1019D80006461CD90A220021A06807F0DFF9C5B223
:1019E8002A461F49384608F095F8B8F1030F1DD864
:1019F800102D0ED0202D0FD0082D0FD13278D2B255
:101A080000231849384608F085F800200CE0202506
:101A1800E6E7328892B2F3E73268F1E738461249CE
:101A280008F078F86FF01500BDE8F0811022E06842
:101A3800002107F019FA0B46024604460B493846BE
:101A480008F068F8102D06D0202D07D0082DE5D114
:101A5800E4B23470D9E7A4B23480D6E73460D4E76E
:101A68000AD1000835D100081FD1000848D1000864
:101A78002DE9F047002386B04FF0FF3591460193DA
:101A88000122524B20262C46074688461A60FFF74B
:101A9800FBF94F4A49464046FFF71AFA431C06D15C
:101AA800691C41D14B49384608F050F817E07328B3
:101AB8001AD0772828D0612811D1DFF81CA101AAF3
:101AC8001021DAF8000001F0BFFB019B0546002B4E
:101AD800DFD0DAF800204149384608F037F86FF0CF
:101AE800150006B0BDE8F087DFF8ECA001AA0021D8
:101AF800DAF8000001F0A8FB019B0446002BC8D0CF
:101B0800DAF800203649E7E7DFF8CCA001AA00217F
:101B1800DAF8000001F098FB019B0646002BB8D0CC
:101B2800DAF800202F49D7E7621C01D12E49BAE71D
:101B38005FFA86F8C6F3C406A8F10803DBB2182BCF
:101B480004D82A4A22FA03F3DB0724D44246284958
:101B5800384607F0DFFFC2E7B8F1100F22D0B8F11E
:101B6800200F25D0B8F1080F01D10A781A70314436
:101B780033444218102AEFD9102CA146294605F102
:101B8800100528BF4FF0100902AA3846A4EB090433
:101B98004B4601F0A1F9B4B1A642EDD802AB2946F3
:101BA800701BE6E70A8892B21A70120A5A70DEE7CA
:101BB8000A68C2F3072C1A70120C83F801C09A70D5
:101BC800120ADA70D3E720468BE700BF1C00002416
:101BD80098D100089FD10008CC0400245ED10008E9
:101BE80071D1000884D10008BCD1000801010001AE
:101BF800D6D1000870B50E4E04460D46337829B18B
:101C080023B10C49BDE8704007F0A0BF83F0010381
:101C180033702BB10849204607F07CFF012333704D
:101C2800294620460022BDE8704001F08DBA00BF69
:101C380048090024F0D100082BD200082DE9F04112
:101C480005460C468F18DFF8EC803B4EA74201D1C1
:101C5800BDE8F08198F8002014F8013B182A22D139
:101C6800112B20D1354C002635492846226888F8A2
:101C7800006007F04FFF28463146FFF7BBFF314BA6
:101C880018780028E4D1304A23681168042B2EDC28
:101C980008B12360116013F003012FD11268136893
:101CA8001BBA1360D4E7A3F1300288F80030092A80
:101CB80004D923F02002413A052A04D83168234A7E
:101CC8005354013131603368022BBFD110220021F7
:101CD8001E4807F063F81E4A136803F8010B1360E7
:101CE800164A13680133136000233360AEE70868AF
:101CF800043B00BA41F8040B0120C7E75B4203F03C
:101D0800030358BF5942022904D1126813885BBAE9
:101D18009BB2C6E703299BD1106802681104C2F37D
:101D2800074302F47F4201F47F010B43134303602E
:101D38008EE700BF49090024880500248C0500248B
:101D480055D200084A090024900500244B090024B4
:101D5800940500242DE9F84300230D4626498046C2
:101D6800264E17460B60264933700B60012DB94685
:101D780057F8044F1DD902222249204609F0CEFA0D
:101D880070B9A378003B18BF01231C4402221E49E6
:101D9800204609F0C3FA28B901233370013DE5E76D
:101DA8000023F2E717492046FEF704FAC0B909F103
:101DB80004090022D9F80400114606F0EFFF0022BA
:101DC800124B11461860D9F8040006F0E7FF104BD3
:101DD800104918604046FFF70DFF0020BDE8F88362
:101DE80023782D2BE5D16378002BE2D022460A49CF
:101DF800404607F08FFED1E7880500244A090024F1
:101E08008C0500246FD2000872D2000894050024C3
:101E180090050024451C000875D2000813B5094830
:101E280009F0FBF850B1002401233A22054906487D
:101E3800009401F0F1F8204602B010BD6FF01200D6
:101E4800FAE700BFE8B60008ECB8000810B5446827
:101E5800A360C4E9001242684021134653F8404B7E
:101E6800516302F1380153620023C2E904130821C7
:101E78001363C2F8B8301162C2E90A33C2E9063303
:101E8800A36823B19B6C13B1044920469847A36803
:101E98009B6A0BB120469847002010BDA91E000878
:101EA8002DE9F34705460C4683685B6C03B19847F8
:101EB800AB685B6B002B34D14FF0000804F12409A8
:101EC80004F1280A218E4846238D626B5B1A51461D
:101ED8009BB2D31A934228BF134601AA07F05DFCB0
:101EE800AB6807469B69002844D00199002B3CD079
:101EF8000246284698470646002818BF48F00108B9
:101F080032465146484607F07EFC002839D032490F
:101F18006F23324A324807F033FC6F212F4807F00D
:101F280026FC284698470028C6D1AB685B6A9BBB4D
:101F3800628B04F11007E38A04F11A0838469B1AE9
:101F4800226A41469BB2934228BF134601AA07F072
:101F580024FC064638BB284607F0C8FCC4F8B8601D
:101F68000120D4E9013198471AE06FF057064FF085
:101F78000108C5E743B101220DF10301284698473E
:101F880006460EB1BE429DD0B8F1000FCDD000205C
:101F9800D4E901319847C8E7284698470028C7D1AF
:101FA80002B0BDE8F087AB6801995B698BB1024666
:101FB8002846984702464146384607F024FC002840
:101FC800CED00549BB23054A054807F0D9FBBB21FC
:101FD800A4E76FF05702EEE740C90008DCD3000819
:101FE8007EC2000810B581680446183101F0BCFCB7
:101FF800A1682046024A1831BDE8104001F054BCDF
:1020080026D4000808B50B4B1B7873B90A4940F26F
:1020180046330A4A0A4807F0B3FB0A4807F0B0FB00
:1020280040F24631054807F0A2FB074B02F032FBAD
:10203800185808BD6C090024B8C800088DC80008E5
:102048007EC20008CBC800080800000038B5044666
:1020580058B91C4940F216531B4A1C4807F090FB1C
:1020680040F21651184807F082FB83680BB14068AC
:1020780048B9174940F21753134A144807F080FB30
:1020880040F21751EEE7D3F88032DB0517D4036826
:102098005B689847054620B9E06808F04CFBA368E0
:1020A8001D75A3685B6C13B1294620469847A36841
:1020B8000022C3F8A422FFF7A5FF02F085FA6FF00B
:1020C8000F05EEE75CD4000834D400087EC200088F
:1020D8005FD40008014907F08FBC00BF0CEB000873
:1020E8002DE9F04FA7B004465422002111A809F0A9
:1020F800F0F800232046CDE90533A3685C3302934A
:1021080008F0AFF8204607F0F3FF10B96069FFF751
:10211800E1FFA06814220021002618304FF0FF3894
:1021280009F0D7F8204607F040FFA168E068B246FA
:10213800B1F8542011AF5C31B3463546B14608F0CA
:10214800BFFA204608F020FB0396DDE90532012A94
:102158006BD0132B6CD8B8F1000F2AD1BBF1000F4C
:102168000AD0204608F031FBA268142311A95C327A
:102178000DEB030007F0B9FDB9F1000F0CD099F889
:102188001130FE2B08D1059B26AA02EB830252F8D8
:10219800542C0AB101330593A068436A002B40F020
:1021A800B580C6B1C369B3422BD000F118050D96AE
:1021B80022E00223029A394606A807F096FD7A68BB
:1021C80006990346029231B101290AD148B16A4AF7
:1021D800204601F08FF96FF00705284627B0BDE8C3
:1021E800F08F059B002B32D0386801F0EDFB98B1D9
:1021F80066B1A5680D9618350CAE0FCE0FC53368BD
:102208002B6020460125FFF7EDFEE6E75B4A01213A
:10221800204601F06FF9DEE7059BC3B13A6829460D
:10222800204601F083FD022809D1059B132B95D97F
:10223800069B022B92D1524B0121524AC8E7032830
:1022480005D0059B4FF0010B013305937DE7039BF8
:102258002BB907AA3968484607F01DFE054604371A
:1022680008F1FF38A5B3EB68BBF1000F08D0FBB14C
:10227800204607F0F6FF204607F051FF424AC6E71E
:10228800B3B1A368AE46DDF814A003F1180CBEE89C
:102298000F00ACE80F00DEF80030CCF80030AB6877
:1022A80033B96B7CFE2B04BF95F8108008F1FF381A
:1022B800D5F804C0BCF1000F08D0AE460CAEBEE89D
:1022C8000F000FC6DEF8003033606646A94603E00B
:1022D800059B63B101230393B8F1000F03D1069B5B
:1022E800022B7FF432AF059B013305932DE7A368DA
:1022F800DB6A13B1DB68002BECD1244B0121244AA3
:1023080020460093119B01F0F5F8E3E7059D90F84E
:102318002830A5EB0A05BBB190F829104FF6FF72DB
:10232800FF2918BF0A469D4202D313449D420BD988
:1023380083690121174A204601F0DCF820466FF036
:102348001505FFF74FFE48E7012107F074FBA06869
:1023580007F065FBA36811AA29465B6A204602EBD1
:102368008A0298470546A06807F05DFB0021A0682F
:1023780007F061FB31E700BF74D4000888D4000877
:10238800E9D40008F4CA0008A6D40008D5D4000887
:1023980086D900080DD50008F7B5044680680D46B3
:1023A800817D002949D1D0F880325A0504D507F03B
:1023B8004DFBE06808F056F9E368DB6873B9002D57
:1023C8003BD0A66806F15C07384607F022FB0028D8
:1023D80035D0394606F5AE70FDF7F6FEA2680DF168
:1023E80006032946E0685C3208F03FF958B9A0684E
:1023F80000F5AE715C30FDF7E7FEA0685C3007F0D1
:1024080008FBADF80600204607F024FFA368D3F8C0
:102418007C329B0603D50B49606907F0EDFA20462C
:1024280000F078FFA268BDF806302046A2F85630C2
:10243800A268A2F8543007F072FE03B0F0BD86F827
:102448005C01CBE778BA000810B50222836804461D
:102458001A7583689B6CBBB907F0A5FA8368D3F833
:102468008032DB040BD50321084B094A01F042F8FE
:10247800A0686FF4805100F5207007F0AEFA20468E
:10248800BDE8104001F0A6B910BD00BF28D500086E
:10249800A7CF00082DE9F04F0023B1B004460993F7
:1024A800A36860689E6C026815691EB3DF6C102211
:1024B80009AB1BA9A847099BCBB10121A06807F06C
:1024C800BAFAA06807F0ABFA3B46099A1BA920465E
:1024D800B047A06807F0A7FA0021A06807F0ABFA98
:1024E800A3689B6C002BDBD12046FFF7ADFF31B012
:1024F800BDE8F08F09AB01220DF12301A847099B24
:10250800002BF4D09DF923109DF823300029A268F0
:10251800C6DB517D032900F23A83DFE811F004009D
:10252800BB02D20238030D2B43D00A2B41D0B2F89C
:102538008012092B21F0FF01A2F880126DD028D853
:10254800002B00F0ED80082B00F01682A268D2F86C
:102558007C12890740F1E480013B162B00F2E080F1
:10256800DFE813F0FE0229023E022502F8025702B4
:10257800DE00DE00DE00DE005B025F02DE007402C9
:10258800DE007902DE00DE00DE00DE007B02DE0017
:1025980090021B2B3DD07F2B00F0FB81A3F1200282
:1025A8005E2AD3D80121A06807F050FA9DF82310BD
:1025B800EEE0D2F88012C9B221B1D2F88012C9B2C5
:1025C8008B42C3D1B2F8801263F30701A2F88012DC
:1025D800A568AB7D012B06D16069FFF77BFDA36879
:1025E80002229A7583E7B5F8541061B9284607F0B6
:1025F8002DFAE06808F036F86069FFF76BFD2046B1
:10260800FFF722FF4CE72046FFF76AFDC5F8A8024E
:10261800F5E7A36801225A7582E0A068D0F87C32F9
:102628009B077DD5012107F011FAA068857D002D53
:1026380076D1B0F85430FF2B72D0B0F8562000F1A4
:102648005C0100F5AE7008F01DFEA3681BA90BA87D
:10265800B3F85620134483F85C511423A26802F59A
:10266800AE7207F042FB0B99142959D830AB03EB33
:10267800810343F8545CA368B3F85620002A00F09D
:102688008882134493F85B30202B00F0868221B1B6
:10269800093B042B39D9012936D100250A9530AADE
:1026A8000A9B002602EB8303B346374653F854AC23
:1026B800B046504607F0ADF9814616AA414628466D
:1026C80000F074FD034600282ED1012E75D130AAE2
:1026D8000A9B02EB830353F8540C07F09AF9A2689B
:1026E800064639461832284600F060FD002833D1E6
:1026F800B3494FF4BA73B34AB34807F041F84FF4FB
:10270800BA71B04807F033F8013900200CAB1BAAA6
:1027180000930AAB019007F0EAFB05460028BED1FA
:10272800606907F03BFABBE61B684A465146184603
:10273800039308F0F3FD60B9039B1846FDF74CFDC1
:10274800584538BF5846002E08BF474601361FFA7D
:1027580080FB08F10108B0E70568284607F059F939
:10276800864205D0821BA919204692B207F020FEA6
:10277800A068B0F85630034493F85C30202B0BD097
:10278800093B042B08D9D0F87C32DF0709D4202173
:10279800204600F0E7FFC3E70121204607F0F3FCDD
:1027A800BEE7002107F05DF92021204600F0DAFF9E
:1027B8000121A06807F055F9B2E70490B0D930AB11
:1027C8000A9AB94603EB820252F8543C184603931E
:1027D80007F01FF9049BA2680690A2F840300496FF
:1027E800A26849462846183200F0E0FC48B9744906
:1027F80040F2BD13734A744806F0C2FF40F2BD119F
:102808007FE7039B09F10109D0F800A0D4F80880FC
:10281800FBB1BAF1000F1FD0069A1946504608F0CE
:102828007DFD0028DCD1694807F0F3F8B8F83A20B4
:1028380000EB0B01121A89B292FBF1F292B2002A54
:1028480034D1634998235F4A5F4806F099FF98217D
:1028580057E7BAF1000FE6D10023A8F84030049BEF
:10286800013B0493BCD1606907F10109FFF732FC11
:10287800204600F0AFFF30AA0A9B02EB830353F80F
:10288800540C07F0C6F83946804611AA284600F0CD
:102898008DFC0746002832D14E4940F2D913494AE7
:1028A800494806F06DFF40F2D9112AE750460792D1
:1028B800059107F0AEF80599079A091A8BB2B8F88E
:1028C8004010481C0593A8F84000B1FBF2F002FB49
:1028D800101189B261B93D4B06213F4A2046CDF817
:1028E80000A000F007FE0599204600F0FDFCB6E7C1
:1028F80053463A4A0621204600F0FCFDF3E7A0685B
:10290800FF22396800F5AE7008F01AFD3B684FF6F3
:10291800FF770393BA4616AA4946284609F1010BE0
:1029280000F044FCE0B1A1680022036801F25B11E9
:1029380011F801EF985C704503D110B1013252458E
:10294800F6D1B8F1000F01D0424507DBBA4206F1D3
:10295800FF36A8BF3A46012E97B201D0D946DAE72A
:10296800002F3FF4DDAEA7EB08020399204692B290
:10297800414407F01DFDD3E6A068D0F87C329E07DD
:102988007FF5CEAE012107F061F8204607F031FD52
:10299800C6E6A068D0F87C329D077FF5C1AE01215C
:1029A80007F054F8A368D3F87C321807EDD4204612
:1029B80007F000FDB4E6204607F05CFCB0E600BF77
:1029C8006CD5000834D400087EC20008E8D7000897
:1029D80081D5000894D500088ED50008A7CF000837
:1029E800204607F03EFC204607F082FB10B96069DC
:1029F800FFF770FB0121A06807F028F8A3689A7D0B
:102A0800012A02D103229A758AE62046FFF71CFDA7
:102A180086E6204607F037FC82E6204607F03EFCB3
:102A28007EE6D2F87C329F0603D55E49606906F0DF
:102A3800E3FFA368D3F87C329E0603D55A49606940
:102A480006F0DAFF204600F0C5FE69E600212046C0
:102A5800FFF7A2FC64E60121F9E7204607F0FAFB3C
:102A6800204606F0A0FF0121A06806F0EFFFA3684A
:102A7800D3F87C329D067FF553AE4C49606906F069
:102A8800BBFF4DE6204600F09BFD0121A06806F043
:102A9800DDFF45E65B2B02D10223537540E6D2F8F1
:102AA8007C22900706D5622B07D14FF0FF312046D4
:102AB80007F091FBA3680022ADE5662BFAD101214E
:102AC800F5E700215175A268D2F87C1289077FF5D5
:102AD800E7AC313B1B2B3FF623AE01A151F823F0A5
:102AE800652B0008712B0008852B0008592B00085E
:102AF800292700082927000829270008292700086E
:102B0800292700082927000829270008292700085D
:102B1800292700082927000829270008292700084D
:102B28005F2A0008552A00081B2A0008BF29000848
:102B3800292700085D2B000829270008692B0008B1
:102B4800292700082927000829270008752B0008CD
:102B580003235375204607F084FBE1E503235375EF
:102B6800204607F077FBDBE503235375A068D0F810
:102B78007C1201F0010181F001011BE6032353756A
:102B8800A368D3F87C329B077FF5CAAD0FE7002313
:102B980083E700297FF47FAD7FE500297FF4B5AD99
:102BA8007BE500BF7DBA000882BA000878BA000841
:102BB80010B5044658B9174940F2EA53164A17485F
:102BC80006F0DEFD40F2EA51134806F0D0FD8068B9
:102BD80048B9134940F2EB530F4A104806F0D0FDAC
:102BE80040F2EB51F0E74FF4807100F5207006F0E9
:102BF800E5FEA3681B7D022B02D12046FFF74AFCA5
:102C0800A0686FF4807100F52070BDE8104006F0F0
:102C1800E4BE00BF5CD4000834D400087EC20008BB
:102C28009AD5000810B5044658B91E4940F2AC536D
:102C38001D4A1E4806F0A4FD40F2AC511A4806F0A1
:102C480096FD806818B163680BB123684BB91849C1
:102C580040F2AD53144A154806F092FD40F2AD51CA
:102C6800ECE7037D012B1AD14FF4FA72002306F02A
:102C780023FF10B96FF00F0010BD0821204600F0A7
:102C8800FBFB204600F0C0FD6069FFF723FA2046F1
:102C9800FFF7DAFBA06806F0C2FE0020ECE76FF051
:102CA8008500E9E75CD4000834D400087EC2000837
:102CB800A2D50008F7B504468068154600F52070CF
:102CC800002932D04FF4804106F078FEA368002135
:102CD8001D65606803689B68984758BB2046FFF7E6
:102CE800A1FF38BB4FF0FF364FF0FF37A06800F563
:102CF800217000220721CDE9006708F0C0FAA0681A
:102D080006F091FE0C4A0421204606F0B9FE204642
:102D18000A4A012106F0B4FE606803685B6903B1E2
:102D28009847A06806F07BFEE0E76FF4804106F064
:102D380054FECBE703B0F0BD55200008B92B0008BE
:102D48002DE9F0410F4616469846044658B94849B9
:102D580040F21263474A484806F012FD40F21261F9
:102D6800444806F004FD08F084F960B1434940F294
:102D78001363404A404806F003FD414806F000FD51
:102D880040F21361ECE7A5684DB93E4940F214637F
:102D9800384A394806F0F4FC40F21461E0E7D5F807
:102DA80080321B050FD4FFF72DF9D5F8A4328342E2
:102DB80009D1354940F215632E4A2F4806F0E0FC48
:102DC80040F21561CCE763694BB9304940F21763AB
:102DD800284A294806F0D4FC40F21761C0E74EB9EA
:102DE8002B494FF4C363234A234806F0C9FC4FF428
:102DF800C361B5E72B7D022B07D005F520704FF492
:102E08008051BDE8F04106F0D9BD4FF4FA720023B5
:102E1800284606F051FE48B3A368D3F8802210056F
:102E280008D49A6C32B9D3F87C32990602D5204678
:102E380007F042FA434632463946204607F059FA27
:102E4800A368D3F88022120508D49A6C32B9D3F853
:102E58007C329B0602D5204600F0BCFC606906F077
:102E68009DFEA068BDE8F04106F0D9BDBDE8F0813F
:102E78005CD4000834D400087EC2000820D90008B9
:102E8800CDD500089AD50008E8D5000824D6000852
:102E980034D6000810B504460A4906F03BFE0A4934
:102EA800204606F037FE2046084906F033FE204645
:102EB800074906F02FFE2046064A002100F0F4FCE0
:102EC800002010BD38D6000876D60008D5D60008F0
:102ED80029D70008C4D70008F8B516461F46044687
:102EE80058B9264940F269632548264A06F048FC45
:102EF80040F26961234806F03AFC00250A46224957
:102F080006F008FEAF420ED9725D20461F4906F052
:102F180001FE0135102D0BD06A07F3D11C4920465C
:102F280006F0F8FDEEE71B49204606F0F3FDF0E752
:102F380000251949204606F0EDFDAF4213D9725D10
:102F480020461649A2F120035F2B28BF2E2206F047
:102F5800E1FD0135102D0BD06B07EED10C49204651
:102F680006F0D8FDE9E70A49204606F0D3FDF0E768
:102F780020460B49BDE8F84006F0CCBD5CD40008FB
:102F88007EC2000834D40008DAD70008E1D7000868
:102F9800E9D70008E7D70008EBD70008A6D800084B
:102FA800EDD7000870B50D46044658B9174940F2E8
:102FB800A4631748174A06F0E3FB40F2A4611548DA
:102FC80006F0D5FB99B1084606F023FD4FF4FA72D6
:102FD80006460023A06806F06FFD10B96FF00F00D9
:102FE80070BD731C142B05D9A06806F018FD6FF08E
:102FF8001500F5E72946A068FDF7E6F8A36883F809
:103008003C60A06806F00BFD0020E9E75CD40008EE
:103018007EC2000834D400082DE9F041884688B003
:1030280015461F46044658B9404940F27E53404A67
:10303800404806F0A5FB40F27E513D4806F097FB5C
:10304800806818B163680BB123684BB93A4940F2FC
:103058007F53374A374806F093FB40F27F51ECE73D
:10306800D0F8A462002E5ED1237C013B012B09D944
:10307800324940F2E3432E4A2E4806F081FB40F2E3
:10308800E341DAE74FF42B72314608F022F9A068E1
:1030980000F5217005F010FDA06800F525700122EB
:1030A80066F38205114607F0D8FFA3694FF4007153
:1030B8001E60A06800F5207006F080FCA36850220E
:1030C80020465A871822A3681A872168FFF76AFFE3
:1030D800A3681B4A4146C3F87C52606803681D68B0
:1030E8002346A8470546D0B9A36801221A75D4E932
:1030F80009010022002304950094CDE906230E233C
:103108004FF4006203930E9BCDE901730D4B03F05E
:10311800CFFDA368C3F8A402216A03F0A9FC2846DE
:1031280008B0BDE8F0816FF07705F8E75CD40008D7
:1031380034D400087EC20008A2D50008F0D70008E1
:10314800D39A0008BD2C000810B558B90A4940F2B6
:1031580032730A480A4A06F013FB40F232710848F3
:1031680006F005FB8468A1648368DA6419B9BDE8D0
:10317800104006F018BC10BD5CD400087EC20008E0
:1031880034D4000810B5044613460A4601460648DA
:1031980001F0ACFC23691B7923B12046BDE810403F
:1031A80006F0FCBC10BD00BFBD9B000838B50B463F
:1031B800154648B91B491C4A521AB3EB920F12D252
:1031C80051F82350284638BD5AB9184940F22913F6
:1031D8001748184A06F0D4FA40F22911154806F0A3
:1031E800C6FA84680CB90025ECE7134A94420AD35E
:1031F800124A944207D218462268294690472B68FB
:10320800002BDFD1EFE70E4A944202D30D4A9442D5
:1032180005D3246814225343E518E358F0E7013333
:10322800F8E700BF18B9000844B900088ED80008AC
:103238007EC2000860D8000848BA000850BA0008E2
:1032480044B9000848BA0008F7B50378044615469B
:103258002D2B05D16FF0150300202B6003B0F0BDB6
:1032680000230C4F01F016FA0646C3510A462046C1
:1032780001A905F093FDF359222B02D16FF0210328
:10328800EAE7002BE6D1019BA342E3D01B78002B91
:10329800E4D0DFE70C0000008368D3F87C329B069B
:1032A80003D50249406906F004BF704788BA000890
:1032B800014906F0FEBE00BF0CEB00080A1E0DDC3B
:1032C8000ED042238168D1F87C12890608D5002ADD
:1032D80004494069B8BF524206F0EBBE4123F1E70A
:1032E800704700BFA2D800080A1E0DDC0ED0442388
:1032F8008168D1F87C12890608D5002A04494069FA
:10330800B8BF524206F0D5BE4323F1E7704700BF6D
:10331800A2D800082DE9F0478468054604F15C004E
:10332800FCF75AFF002287B294F83C809146668FDA
:10333800A6EB0806BE4209DB002F21DD5C32686976
:1033480010492244BDE8F04706F0B3BE16445C328B
:103358000D49344494F85CA084F85C90AB686869C3
:103368001A4406F0A6FEAB683246334483F85CA0E4
:10337800AC68638FA3EB08034FF00008FF1AD6E789
:10338800BDE8F087A7CF0008F4CA00082DE9FF4779
:1033980088461446054608B1002957D131494FF4EB
:1033A800E273314A314806F0EBF94FF4E2712E48E6
:1033B80006F0DDF9039AA24209D92D4940F2CF134C
:1033C800294A2A4806F0DCF940F2CF11EFE7914488
:1033D800A41A002A40D1AB68197D03290ED002290E
:1033E80021D8082103F52170CDE9006707F047FFD0
:1033F800A86800F52170082107F03DFF686822469B
:1034080008EB09010368D3F80CA003ABD0470028E8
:10341800D0D018494FF4E773134A144806F0B0F9AE
:103428004FF4E771C3E7D3F880229205FBD503F583
:103438002073BFF35B8F53E8001F21F4007143E84A
:103448000012002AF7D1BFF35B8FD7E74FF00009CE
:103458004FF0FF364FF0FF37002CCFD104B0BDE856
:10346800F08700BFD5D80008A9D800087EC2000898
:10347800E0D8000840C9000808290A4617D8836818
:1034880093F83E10914212D083F83E20082A8368B0
:10349800D3F87C3205D0990609D50549406906F06C
:1034A80008BE9B0603D50349406906F002BE704773
:1034B800F2D800088DBA000838B50D4609780446D8
:1034C800FFF7DAFF6A78072A11D8A36893F83F1044
:1034D80091420CD083F83F20A368D3F87C329B0636
:1034E80005D560690249BDE8384006F0E2BD38BD3F
:1034F800FBD800080CB473B5069E0D46044658B9AF
:10350800274940F22D23274A274806F039F940F287
:103518002D21244806F02BF983684BB9234940F242
:103528002E23204A204806F02BF940F22E21F0E7FE
:1035380042694AB91E4940F22F231A4A1A4806F02E
:103548001FF940F22F21E4E74EB91A494FF40C73E2
:10355800144A154806F014F94FF40C71D9E7D3F85A
:1035680080329B040FD407F084FD60B1124940F209
:1035780031230C4A0C4806F003F9104806F000F90C
:1035880040F23121C5E707AB324629462046019370
:1035980006F0AFFE02B0BDE8704002B0704700BF51
:1035A8005CD40008A9D800087EC200089AD5000893
:1035B80024D6000834D6000804D90008CDD5000860
:1035C800F8B583680446B3F85420002A55D0B3F8F8
:1035D8005610002951D05B3103F15C050B441846A5
:1035E800A84206D3014611F80169202E3CD0A84212
:1035F8003CD286B2471C9DB2AB1B9BB2591CD21A57
:103608000144384607F04CFEA268711B2046B2F808
:10361800543013FA81F309B2A2F85430A368B3F80E
:1036280054201344002283F85C2006F0ACFDA36804
:10363800D3F87C329A0603D51049606906F039FD43
:103648003B460F4A08212046FFF754FF2046FFF764
:1036580023FEA368D3F87C329B060ED5606909491E
:10366800BDE8F84006F025BD0846B9E7014611F85F
:103678000169202EBDD00846B9E7F8BD92BA000806
:10368800A7CF000896BA00082DE9F04704460F4670
:1036980090460AB1FFF700FEA668D6F87C32B6F865
:1036A80056505B0723D505F15C003044FCF794FDC8
:1036B8000546B5B9A368B3F85420A3F85620A06806
:1036C80006F004FD30B1B8F1000F00D017B1606901
:1036D800FFF7EEFD7942204609B2BDE8F04706F053
:1036E80052BD1D49013D606906F0E3FCE1E7304643
:1036F800AA46FCF771FDB6F85490738F19FA80F951
:1037080015FA80F0B0FBF3F2B9FBF3F39A421AD042
:103718004845A368CEDA5A8F451CB0FBF2F302FB8A
:10372800130313B96069FFF7C3FDA3680AF1010623
:1037380020460A4A53440821B24693F85C30FFF702
:10374800D9FE2846E4E75C35054A08212046731966
:10375800FFF7D0FEAEE700BFA3F20008A6D8000826
:10376800A7CF000813B5836804468DF80710D3F86F
:103778007C22D00725D5B3F85610B3F854208A42D6
:103788001FD0481C9DF80720A3F856000B4483F867
:103798005C20A368D3F87C12890710D5D3F87C3253
:1037A800606913F0040F0A4918BF2A2206F081FC49
:1037B800204606F09DFC10B16069FFF779FD02B064
:1037C80010BD01220DF10701204606F0B7FDF6E70E
:1037D800A6D8000810B5836804469A7D1AB9094A24
:1037E8000221FFF787FEA368D3F87C329B0707D531
:1037F8002046FFF78FFD2046BDE8104006F09EBC2E
:1038080010BD00BFA7CF000870B5044692B058B9E4
:103818000E4940F23D230E480E4A05F0B1FF40F232
:103828003D210C4805F0A3FF00234FF47A7501935E
:103838006068402202A903681E6901ABB047019B7A
:1038480013B108B9013DF3D112B070BD5CD40008C2
:103858007EC20008A9D80008014906F0EFBD00BFE4
:103868000CEB0008F8B50F465168054616461C468D
:1038780011B11A4606F0EFFDB3688BB12146284610
:10388800FFF732FD074A08213B462846FFF732FE7C
:10389800B168E21D21B12846BDE8F84006F0DBBD5D
:1038A800F8BD00BF2FD900082DE9F0430E460021CE
:1038B80089B0044617460D4603AA304601F10108AF
:1038C800FFF774FC88B96DB127B13A460821204644
:1038D800FFF710FE002103AA304601F10108FFF7A7
:1038E80065FC60B909B0BDE8F083006810B1FCF769
:1038F80073FC80B28542414638BF0546DCE7D0F804
:103908000090B9F1000F0FD099F8003063B1476803
:103918000821124B2046124ACDE90059FFF7EAFD6B
:1039280027B96069FFF798FF4146D4E70B4B20465B
:103938000C4A0821FFF7DEFD384606F06DFDAB1D89
:103948009BB228B13A4649462046FFF78BFFEBE782
:103958001A463946204606F07EFDE5E7A9F200083A
:103968003AD9000841D90008F7B50F6805460E4650
:10397800D7B13846FCF730FC84B2114B08212846F1
:10398800104A00933B46FFF7B5FD7168084606F0FC
:1039980043FDE31C9BB248B10A462846316803B090
:1039A800BDE8F040FFF75EBF3C46E6E731B11A4696
:1039B800284603B0BDE8F04006F04DBD03B0F0BDA9
:1039C800A5F200088FD5000810B507490446FCF792
:1039D800F1FB38B105492046FCF7ECFBB0FA80F062
:1039E800400910BD0120FCE746D9000849D9000864
:1039F80010B583680446D3F87C329B0603D5064984
:103A0800406906F094FDA368502200205A871822C6
:103A1800A3681A8710BD00BF9ABA000808B5836961
:103A280002491A6806F076F8002008BD50D9000847
:103A3800024908B5FFF7B6FA002008BD0DEB0008EB
:103A480037B504460025A2680DF106030121E06898
:103A580002F5AE7206F009FEBDF80600A36840B193
:103A68002A4603F5AE7305492046013506F052F89B
:103A7800E9E783F85C0103B030BD00BF60D90008F6
:103A880010B5044606F082F803490246204606F0BF
:103A980041F8002010BD00BF90C50008022907B5F5
:103AA8000BD153680C4900930C4B126806F04EF882
:103AB8006FF0150003B05DF804FB8368084AD3F87B
:103AC8007C32084913F0020F074B18BF1A4606F05C
:103AD80021F80020EEE700BF83D900086ED900085E
:103AE8006AD900088CD90008AFEB0008F7B514496B
:103AF8000546144C06F00EF8134F0022BC4218D9A4
:103B08001249E623124A134805F03AFE124805F016
:103B180037FEE6210E4805F02AFE236A92B20F49C5
:103B2800284600932C3454F8243C05F0F3FF324621
:103B3800E4E702F10106F0D3002003B0F0BD00BFB6
:103B48009DD90008ECB8000818B90008F3D9000896
:103B5800C6D900087EC200080ADA0008B5D90008EC
:103B680010B583680446D3F87C329A0603D5074912
:103B7800406906F0DCFCA368D3F87C329B0603D5C9
:103B88000349606906F0D3FC002010BDA1BA000803
:103B9800A6BA00080129F0B5044685B00BD05368D1
:103BA8006FF015055B4900935B4B126805F0CEFF7B
:103BB800284605B0F0BD8368D3F87C329A0603D551
:103BC8005649406906F0B3FC6FF0F9012046FFF74B
:103BD80075FBFA2120460025FFF786FBA0684FF405
:103BE8008072294600F5AE708DF80B504FF47A7646
:103BF80007F06FFB4A49606906F099FC606905F0B7
:103C0800CDFF606801220DF10B0103681F6903AB4A
:103C1800B847039B53B9013E4FF47A7007F0E5F9B2
:103C2800B6B2002EEDD16FF0850534E09DF80B207B
:103C3800A3681B2A60D093F85C111B29E1D1522A92
:103C48005AD15A19002382F85C31A66896F85D218A
:103C58005B2A38D106F25D15022015F8011F0246CD
:103C680001303B2980B231D1FF2ADCD002F5AE7297
:103C780016FA82F1002211F8015F002D30D1FA2ADC
:103C880086F85C51A16828BFFA22FA2B4A8728BF18
:103C9800FA23A2681387A368D3F87C329B0603D55E
:103CA8002049606906F043FC002D81D0A3685022AA
:103CB8001D4920465A871822A3686FF007051A87FE
:103CC80005F036FF74E786F85C31ACE703EB830355
:103CD8003039B0F5807F01EB43018BB2BDD1A2E74B
:103CE800013002EB8202303D80B205EB4205B0F5AF
:103CF800807FAAB2BFD196E72B440135ADB283F8D5
:103D08005C21092D7FF67DAFA368002283F85C2132
:103D180089E700BF83D900086ED90008ACBA00084B
:103D2800ACF20008B0BA000829DA00082DE9F04F13
:103D3800074689B01546894621B1104606F010FDA0
:103D480000285BD1032455E05C463CE029460AF58F
:103D5800AE7007F014FB0646002854D0FCF73CFA76
:103D6800314682B2601C08F101080132304407F084
:103D780097FA22465946304607F084FA4FF0200356
:103D88003355BAF8583001331C44AAF85840002477
:103D980001994B1C03AA48460193FFF707FA064608
:103DA800E8B100223168284606F06DFD0028EFD101
:103DB800D6F800B0D7F808A0BBF1000FC4D0584619
:103DC800FCF70AFA84B2BAF858302344FF2BBDDD59
:103DD80001242B460D4A03213846FFF78BFBB8F127
:103DE800000F07D0B8682A4600F1580100F5AE70F8
:103DF80006F02AF8204609B0BDE8F08F4FF0000819
:103E080002244146C5E70224E9E700BF1FDF000896
:103E180003480021034A08B5121A06F0E6FC08BD5B
:103E2800E8000024700900240748084A0849121AC3
:103E380008B506F0DCFC0748074A0849121ABDE82D
:103E4800084006F0D4BC00BF00000024E8000024AD
:103E5800C0F200080000002400000024C0F200089E
:103E680038B505460C4699B11048D1E901230968CF
:103E780005F070FCE1680E48D4E9042305F06AFCFB
:103E8800E1690C4805F066FCA1690B4805F062FC85
:103E9800012D05D1EFF305810848103905F05AFCCA
:103EA80021462846BDE8384002F0F6B971DF00081F
:103EB800A1DF0008D1DF0008E1DF000810E00008FA
:103EC80030BFFFF7FDBF00BF2DE9F0410B4E05469F
:103ED800DFF82C80324606EB0807CC1B0949204640
:103EE80007F0D0F9A019083C4246002107F0F1F983
:103EF80007F10800C5F8AC40BDE8F08100000000FB
:103F08000800000050BA00082DE9F8433B4D8046F0
:103F18003B481746894605F01DFCAB6ADA0622D5F0
:103F28001124384805F016FCAB6A1B0703D5122488
:103F3800354805F00FFC314DAB6A9E0715D533485F
:103F480005F008FC6E6BAB6A1C0642D5314630485A
:103F580005F000FCB9F1000F03D0AB6A23F0800331
:103F6800AB62132403E01024DEE76FF01506234D3F
:103F7800AB6AD80703D51424264805F0EBFBAB6AD7
:103F8800990603D51524244805F0E4FB1B4DAB6ABC
:103F9800DA0602D4AB6A9B070AD56B68180507D501
:103FA8004146304600F0C2FAB0B180F309880224D5
:103FB800124B9A6A920603D55A6A22F400525A6240
:103FC8009A6A204642F0FF029A6200233B70BDE8DD
:103FD800F8836FF01506C4E7AB6AD906E8D50F4930
:103FE80040F227130E4A0F4805F0CAFB0E4805F0A9
:103FF800C7FB40F227110A4805F0B9FB00ED00E0C5
:1040080024E000083BE000086FE0000883E00008B7
:104018009CE00008B3E00008D3E0000835E10008A0
:1040280003E100087EC200087FE1000810B51D4CBE
:104038001D4805F08FFBA36A990130D51B4805F090
:1040480089FB1E20A36ADA0103D5194805F082FB13
:104058001F20144CA36A1B0303D5164805F07AFBEE
:104068002120A36A590303D5134805F073FB2220C6
:104078000C4CA36A9A0303D5104805F06BFB232068
:10408800A36ADB0303D50E4805F064FB2420054A28
:10409800936A6FEA03436FEA1343936210BD1D20CE
:1040A800D0E700BF00ED00E0A2E10008BBE1000896
:1040B800CFE10008EAE1000809E200082FE2000861
:1040C8004AE2000870B5244C064624480D4605F01F
:1040D80041FBA36AD90435D5214805F03BFB1720DD
:1040E800A36A1A0503D51F4805F034FB18201A4C9B
:1040F800A36A9B050FD51C4805F02CFBA16BA36A8E
:10410800180407D5194805F025FB1EB1A36A23F446
:104118000043A3621920104CA36A590503D514481B
:1041280005F018FB1A20A36ADA050DD5114805F029
:1041380011FB1B20084A936A43F47F4393620023D0
:104148002B7070BD1620CBE7A36A9B04F2D50A48F2
:1041580005F000FB1C20EDE700ED00E076E200082A
:104168008DE200086FE000089FE20008B9E200084D
:10417800CFE20008EBE20008D3E00008714BF0B58D
:10418800044658688BB00025C0F3080385F31188EE
:10419800BFF36F8F02F07F46B6F17F4F06D102F072
:1041A8000C06082E11D1684805F0D4FA674940F288
:1041B8001B43674A674805F0E3FA674805F0E0FAE9
:1041C80040F21B41624805F0D2FA16074CBF0C4674
:1041D8000125002CEAD00026DA1E8DF80760092A8E
:1041E80000F2A180DFE802F0059599789F9F9F9FD4
:1041F8009F9D5A4805F0AEFA8DF80760514EF36A54
:104208009A0704D5564805F0A5FA00232AE0F36A70
:10421800002B01DA5348F6E7F36A5B006CD5524885
:1042280005F098FA7369A26943F480737361BFF368
:104238004F8FBFF36F8F32F8023C726922F480729D
:104248007261BFF34F8FBFF36F8F03F47F42B2F5F4
:104258005F4F27D1DBB2022B24D12168434805F0F8
:1042680079FA23689DF80720D2B902AE04F1200735
:104278002068083454F8041C3246BC4203C216466F
:10428800F6D1099A002D5AD0C2F3080121B96FEA74
:1042980052226FEA4222099202A91846FFF7E0FD6E
:1042A8000BB0F0BD274B9A6AD2B23AB10DF10702B2
:1042B80001212046FFF728FE0346D3E79A6A12F445
:1042C8007F4F05D00DF107010120FFF7FBFEF3E753
:1042D8009B6AB3F5803F02D3FFF7A8FEECE72449B9
:1042E80040F2ED231A4A1B4805F04AFA214805F026
:1042F80047FA40F2ED2165E71D494FF43C73144A33
:10430800144805F03DFA1C4805F03AFA4FF43C71A0
:1043180058E70DF107020021CBE70DF10701002056
:10432800D3E716486FE710F4F87FA3F11002144B97
:104338001449154808BF194605F00CFA65E76FF3EC
:104348000802A8E700ED00E032E300085EE3000899
:1043580003E100087EC2000871E30008AFE300082B
:10436800C7E30008E9E30008F8E3000818E40008D8
:1043780099E9000835E4000859E4000889E40008D0
:1043880004E3000819E30008AEE40008044B5A6986
:1043980042F010025A615A6922F008025A617047C5
:1043A80000ED00E0EFF30880EFF3098101B57246F4
:1043B800FFF7E4FE01BD00BF0F4880F3088805F051
:1043C8008EFA102080F311880C484FF0AA014FF4A0
:1043D800046206F00AFA09484FF40461401880F3B1
:1043E8000988EFF314800221084380F31488BFF38F
:1043F8006F8F00F065F80000801F0024C0110024B2
:104408001EF0040F0CBFEFF30880EFF309808169F9
:1044180011F8021C0229FFD001B5724606F0E9F92D
:1044280001BD00BF00B2002807DB0123410900F0ED
:104438001F00024A834042F82130704700E100E043
:1044480038B54B1C04460D460F2B0FD96B23104A69
:104458001049114805F094F9294610480F232246BF
:1044680005F08EF96B210A4805F081F900B21B01AD
:104478000028DBB206DB00F1604000F5614080F8FF
:10448800003338BD00F00F00054A1354F9E700BFA8
:10449800C2E40008F9E400087EC2000814E5000838
:1044A80014ED00E0044B054A23F07F039360BFF34B
:1044B8004F8FBFF36F8F70470000000800ED00E0DA
:1044C80008B5FFF7EFFF0C4AD2F8883023F47003E1
:1044D800C2F88830EFF3148323F0040383F31488BD
:1044E800BFF36F8FFFF794FCFFF79EFC00F0B4F862
:1044F80006F0A5F901F0D6FF00ED00E042F8203CF7
:10450800203A009B08495360019B21F00101936008
:10451800029B9161D3604FF08073D36100230265E1
:10452800C0F8B030704700BF590C00080A4A03466B
:10453800906878B113F1160FD0F89C0005D0A0F15F
:104548004002934205D3834203D2814228BF002010
:1045580070470020704700BF0409002415460D4A23
:104568000E4608B50C4B9060D0F8AC201A6000F0ED
:10457800EBF82C4686F309880020044B9847204620
:10458800002100220023024C204700001FA8000839
:10459800590C00080409002448080024014B102283
:1045A8001A61704700ED00E0054B5A699B689A4212
:1045B80004D0044A536843F080535360704700BFE7
:1045C8000409002400ED00E0084B9B6883420BD1EE
:1045D800EFF3058343B1064B5A6842F080525A60A4
:1045E8005A6A22F400425A6203F0E0BA040900242D
:1045F80000ED00E015498A684FF030001044EFF3F1
:10460800098C80E8F01F102080F31288BFF36F8FA9
:104618000F4F4FF000664A698A603E60D2F8AC00DE
:104628000C4C2060D2F8B0000023C2F8B03080F300
:10463800118804B5104600F087F8BDE8044002F17F
:10464800300090E8F01F8CF30988704704090024B3
:1046580004ED00E048080024002304481021C21893
:104668000133292B82F80013F9D1704700E100E0EB
:1046780008B5EFF30583064A103B02EBC30152F875
:10468800330049688847BDE80840FFF78DBF00BF81
:1046980008B700080148006870470000480800246F
:1046A800154A70B5536913F4803323D1C2F88430A6
:1046B800BFF34F8FD2F8803043F6E074C3F3C900DC
:1046C800C3F34E335B0103EA0406014646EA8175EB
:1046D8000139C2F86052F9D2203B13F1200FF2D110
:1046E800BFF34F8F536943F480335361BFF34F8F48
:1046F800BFF36F8F70BD00BF00ED00E00B4B5A6930
:1047080012F4003211D1BFF34F8FBFF36F8FC3F88C
:104718005022BFF34F8FBFF36F8F5A6942F40032B4
:104728005A61BFF34F8FBFF36F8F704700ED00E002
:10473800024B0121024A034800F078B80000042423
:1047480000000024ECC00008D0F89C304021054A45
:10475800403B10461360044BC2E90113012100F0ED
:104768008BB800BF4C08002400000B15084AC2F89B
:1047780098000B6823F01F03034343F01003C2F8AB
:104788009C308B6843F00103C2F8A030704700BF2B
:1047980000ED00E02DE9F0430E4685B01F460446C3
:1047A8004FF00009DFF85480B14523DA6068D8B1CA
:1047B8003FB1411E08421BD11F2819D9236819424D
:1047C80016D12368019306F03BF8A3680343D0B2DF
:1047D8000393D8F89050C5F30725013DA84207D8A0
:1047E80001A9FFF7C3FF421C09F101090C34DBE7FB
:1047F8006FF01502104605B0BDE8F08300ED00E04B
:10480800044B0522C3F89420BFF34F8FBFF36F8F7B
:10481800704700BF00ED00E0BFF35F8F024B00223E
:10482800C3F89420704700BF00ED00E038B50D4D87
:1048380001230C462A78FFF7ADFF287016300FD1F8
:1048480040F28913084A0949094804F099FF2146AA
:10485800084804F095FF40F28911034804F087FFE7
:1048680038BD00BF6B09002454E5000899E9000829
:104878007EC2000883E50008144A002310B51278A8
:104888000C46FFF787FF10F1160F08D0104A0021D9
:10489800D2F89030C3F30723984210DB10BD4FF4D1
:1048A800D4730C4A0C490D4804F06AFF21460C48A1
:1048B80004F066FF4FF4D471064804F058FFC2F8BC
:1048C80098000130C2F8A010E2E700BF6B0900248D
:1048D80000ED00E054E5000899E900087EC20008F0
:1048E800AFE500082DE9F04F744E85B0744DD6F849
:1048F80090302C68C3F307239C4213D940F202235B
:10490800704A7149714804F03BFFD6F8902021465F
:104918006F48C2F3072204F033FF40F202216948CE
:1049280004F025FF00200C26FFF776FF84421CD1F7
:10493800684E68460027DFF884913470FCF720FC45
:10494800654C8046654DB84516D1337800205B49E3
:10495800D1F89020C2F307229342C0F2A980002028
:10496800FFF74EFF05B0BDE8F08F696806FB001140
:10497800FFF7FCFE0130D9E7009A390102EB071373
:10498800D3F80CA00AEA0400B0F5000F69D00AD8E1
:10499800B0F5001F3DD0B0F5800F55D0B0F5801FA1
:1049A80015D00137CFE7B0F1007F65D0B0F1805F57
:1049B8006DD0B0F1807FF4D1D3F804A05258986834
:1049C80005F03EFF40F08870CDE901A20BE0986841
:1049D80005F036FF40F08850D3F804A0525840F450
:1049E8003020CDE901A20390D9F890303078C3F394
:1049F8000723013B984254D9334940F23523314AC1
:104A0800324804F0BDFE364804F0BAFE40F23521C3
:104A180085E7986805F014FF40F08850D3F804B093
:104A28001AF0010F525840F40020CDE901B203906A
:104A3800DAD02C498423234A244804F0A1FE2A48CA
:104A480004F09EFE84216AE7986805F0F9FED3F821
:104A580004A0525840F0C060CDE901A240F40030F3
:104A6800C1E7D3F804A05258986805F0E9FE40F071
:104A78008270CDE901A2B6E7D3F804A0525898682D
:104A880005F0DEFE40F48020CDE901A2ABE7D3F8C3
:104A980004A05258986805F0D3FE2843CDE901A236
:104AA800A1E701A9FFF762FE33780133337078E795
:104AB800C1F898300133C1F8A00049E700ED00E0E3
:104AC8007CBC000854E5000899E900087EC200088B
:104AD800DCE500086B0900240000F0FF000002116B
:104AE80065E6000810E6000836E60008F0B587B06D
:104AF80007460E4614460021102268461D4606F059
:104B0800E8FB02232A4621468DF802306846044B0A
:104B1800CDE90476019304F033FA07B0F0BD00BF85
:104B280069A8000808B5024B1B689847002008BD13
:104B380058080024034B044A1860937843F0020392
:104B48009370704758080024440000240649074819
:104B580021F00701C1F1105208B502F58022FBF7D8
:104B68002BFE002008BD00BFFB2200245C080024A7
:104B78002DE9F04F91B01D4606460C461A9B934608
:104B8800002B00F04B82B146294619F8010B05F0BD
:104B980072FE0246207805F06EFE3F2A07465FFA4D
:104BA80080F821D006DC92B12A2A32D0D2B242450E
:104BB8002DD01EE05B2A7DD05C2AF7D1EB07F6D416
:104BC800707806F1020905F056FEC2B2EFE7E80672
:104BD80002D5B8F12F0F03D0B8F1000218BF012297
:104BE800104611B0BDE8F08F18B12F2803D1A907DE
:104BF8000DD50122F4E72E2809D16A0707D55C45AF
:104C0800F7D0AB0703D514F8013C2F2BF1D00134B2
:104C18002CE0707805F02FFEC1B22A2918D02E2F6B
:104C280009D16F0707D55C45E3D0AE0703D514F863
:104C3800013C2F2BDDD079B915F00202D0D0ED065A
:104C480000F1EE812F21204606F05BFB021EC5E72E
:104C5800294619F8010FDDE72F2909D1A80707D53B
:104C6800204606F04EFB04460028C2D04E468AE78E
:104C78001A9B05F0020A5F1E2646B8F1000FB8D04D
:104C88005A462B46214648460097FFF771FF0246D1
:104C98000028A5D02946307805F0EDFD2F2804F12D
:104CA800010404D1BAF1000FA3D12646E8E75FFA60
:104CB80080F8E1E700289CD02F2848D1AA0798D48B
:104CC8007378212B01D05E2B4FD1B31C05930123A0
:104CD80029463846069305F0CEFDC3B206460022A3
:104CE8000493A0F14103192B099394BF00230123D6
:104CF8000F93A0F120035E2B94BF002301230E9392
:104D0800A0F16103192B089394BF002301230D938D
:104D1800A0F121035D2B0B9394BF002301230C9377
:104D2800A0F13003092B079394BF002301230A93B2
:104D3800059B0393039B1B785D2B1ED1059B039951
:104D48008B4222D2069B01F1010993425EE72E288D
:104D5800B6D16B07B4D55C453FF44BAFA807AFD5C8
:104D680014F8013C2F2BABD143E70023CDF8149066
:104D7800AEE70122CDF80CA0DCE7002B00F04C8157
:104D88002F2B38D1A9073FF534AFDDF80CA0294601
:104D98001AF8010B05F06FFD0399C3B249782D2964
:104DA80040F0348103998978002900F02F815D292A
:104DB80000F02C8103985C2900F1020A04D1E9076C
:104DC8005CBF014601F1030A29461AF8010B039357
:104DD80005F051FD002800F01F8115F0080F039B16
:104DE80040F00E810499C0B29942C3D3814298BF62
:104DF80042F00102BEE703995C2B497805D1EB0725
:104E0800C3D4039B01330393BFE75B2BBDD13A297E
:104E1800BBD1039B0020991C03468A4611F801CB9D
:104E2800BCF1000F46D17F497F4FBB4208BF884283
:104E380000F0DB80814277EB03015AD3A7F51027F6
:104E48006FF4817C79496744BB4208BF884200F00F
:104E5800BA80814277EB030137D3A7F5003774494D
:104E6800A7F50177BB4208BF884200F09A8001F19C
:104E7800C16107F57F4701F50031F137BB4208BF33
:104E8800884200F0988001F1E061DFF8A8C101F5DF
:104E98000031634508BF88427FF477AF26F02003CE
:104EA800413B192B7FF665AF079B092B98BF42F052
:104EB80001025FE711F802ECBEF15D0FB3D01B02EF
:104EC80043EA10634CEA0020A7E75B495B4FBB420B
:104ED80008BF884200F08E8007F1E047584907F57F
:104EE8007437F6378B4208BFB8427FF44EAF0C9B3D
:104EF8007CE05449544FBB4208BF88426BD0814282
:104F080077EB030129D3A7F53F375049A7F5FC777D
:104F1800BB4208BF88426FD007F1C6474C4907F526
:104F2800713707F57D778B4208BFB8427FF42DAF04
:104F38000B9B0E2B7FF61DAFA6F13A03062B7FF6CF
:104F480018AFA6F15B03052B7FF613AFA6F17B0321
:104F5800032B98BF42F001020CE732493D4FBB4298
:104F680008BF88424AD007F1F04701F180616FF429
:104F7800E16CA7F5881701F500316744BB4208BF0B
:104F880088427FF402AF079B092B7FF6F2AE099B9C
:104F9800052B7FF6EEAE089B052B98BF42F0010269
:104FA800E8E6099B192B7FF6E4AE089B192B98BFFE
:104FB80042F00102DEE6202E3FF4DBAE092E08BFE8
:104FC80042F00102D6E61F2E7FF7D3AE7F2E08BF30
:104FD80042F00102CEE6202E3FF4CBAEA6F1090343
:104FE800042B98BF42F00102C4E60D9B83F0010335
:104FF8001A43BFE60A9BF9E70E9BF7E70F9BF5E715
:10500800A0F14101192998BF2030EBE60499994293
:1050180008BF42F00102ADE65B22C8E50322DFE5E6
:105028000A46DDE55D3A7265776F6C005D3A6C7231
:105038005D3A61686E6C61005D3A74696769640025
:10504800617267005D3A6563617073005D3A746E02
:105058006E757000707075000268064B1A604268C1
:10506800054B1A608268054B1A600269044B1A6086
:10507800704700BF700800246C08002468080024EA
:105088007408002407B5084A92E80300CDE9000136
:1050980006488268126822B16946904703B05DF8F5
:1050A80004FB6FF05700F9E770BA000828B500084C
:1050B800044B03EB40000023013320F8022B8B4202
:1050C800FADB7047780000242DE9F04105460026F8
:1050D8000F4F4FF00108F4B26B78A34201D8BDE836
:1050E800F0812B781C44204605F0D7FB68B1204698
:1050F80005F0EFFB57F834303BB107EBC40204F07E
:105108001F04516808FA04F098470136E3E700BF26
:105118007808002408B510B1431E03420CD00E498C
:1051280060230E4A0E4804F02BFB0E4804F028FBBF
:1051380060210A4804F01BFBB0FA80F0C0F11F00A0
:105148000F2807DD08496123044A054804F018FBC5
:105158006121EEE7C0B208BDF4E60008B2E6000837
:105168007EC2000829E7000852E7000810B5044687
:10517800FFF7D0FF0C4B33F91000FF2809D10B497A
:10518800CB230B480B4A04F0FBFACB21094804F067
:10519800EEFA4FF0B043D3F880201443C3F88040B0
:1051A800BDE81040FFF73EB978000024CEE70008BC
:1051B8007EC20008B2E6000808B54FF0B0430329E4
:1051C8001ED8DFE801F0020B0E161A6822EA000268
:1051D8001A605A6822EA00025A6008BD1A68024337
:1051E800F6E75A6802435A601A6822EA00021A600F
:1051F800F3E71A6802431A605A6810435860ECE7EC
:1052080005494FF481730548054A04F0B9FA4FF48B
:105218008171034804F0ABFA99E900087EC20008DE
:10522800B2E6000838B50D461446FFF773FF0A4B7F
:1052380053F83020AA4204D103EBC0014968A142C7
:1052480005D032B943F8305003EBC0035C6000204E
:1052580038BD6FF00F00FBE77808002408B5FFF7AA
:1052680059FF044B002243F8302003EBC0035A6077
:1052780008BD00BF7808002400F003020F230432A1
:1052880092009340094A43EA900000F00303023376
:1052980052F82320030C02EA104293FAA3F008B153
:1052A800B0FA80F022FA00F0704700BF00040058FE
:1052B800314B10B518680B88C3F30B03D42B47D0B8
:1052C80036D803F6FF74C4F30B04122C02D96FF01E
:1052D800850043E0013B122BF9D801A454F823F0D0
:1052E8006F530008D7520008D752000835530008FA
:1052F800D7520008D7520008D75200086F53000849
:105308006B5300086F530008D7520008D7520008A3
:10531800D7520008D7520008D7520008D7520008C1
:10532800D7520008595300085953000813480FE092
:1053380003F62873C3F30B031C2BC8D8012404FA03
:1053480003F30F4C23420AD140F211142342BED07A
:1053580010600B68B3F5805F07D2002010BD4008CD
:10536800F6E70848F4E70848F2E7C3F313330133D4
:10537800B0FBF3F01060F0E76800002400366E011F
:105388000010111100B4C4040076B010754B13B5A9
:10539800D3F83C2142F00402C3F83C21D3F83C2165
:1053A80002F004020192019A1A6822F480221A601B
:1053B8001A6842F480321A601A689103FCD50023F7
:1053C8000093694B9A6942F440429A619A6902F4DF
:1053D80040420092009A9A699204FCD5614B1A697E
:1053E80002F03802182A00F2B0801A6902F0380276
:1053F800182A16D11A68540706D41A6842F001020E
:105408001A601A685007FCD5564B1A6922F0070231
:105418001A611A6912F0380FFBD19A6922F00F024B
:105428009A61504C236823F080732360236823F02B
:1054380080632360236823F080532360A36A23F0EA
:10544800030343F00203A362A36A23F47C7343F0CB
:10545800C003A362E36A23F00C03E362E36A43F048
:105468000203E362236B6FF3080343F48B7343F087
:1054780001032363E36A23F00103E362236B23F44C
:105488007E4343F400732363E36A43F48033E362A7
:10549800236B23F4FE0343F4C0232363E36A43F43A
:1054A8000033E362236B23F0FE4343F080732363EE
:1054B800E36A43F48023E362236843F08073236044
:1054C80023689901FCD5294800F0F2FDA369254A13
:1054D80023F47063A361A36923F00F03A361E36955
:1054E80023F0700343F04003E361E36923F4E063CE
:1054F80043F48063E361A36923F0700343F040033E
:10550800A361236A23F0700343F0400323622369F5
:1055180023F0070343F003032361136903F03803FF
:10552800182BFAD1104B9A6942F440429A619A6951
:105538009204FCD50B4A0020136923F4004313613D
:105548000B4B0A4A1A6002B010BD0A49FC230A4AEA
:105558000A4804F015F90A4804F012F9FC21064833
:1055680004F005F900440258004802580076B010CB
:105578006800002499E90008DDE700087EC20008F9
:105588001AE80008132808D8054BC34013F0010F88
:105598000CBF6FF08500002070476FF085007047E2
:1055A80012070C0008B5074805F037FD38B1064862
:1055B800FFF7C0FA0448FBF72DFB002008BD6FF089
:1055C8001200FBE7E8B60008D55500080A2838B5E8
:1055D8000446074D04D1AB680D2128465B689847FF
:1055E800AB68E1B202485B689847204638BD00BF07
:1055F800E8B6000838B5036961B921496423214A2E
:10560800214804F0BDF8214804F0BAF864211D4887
:1056180004F0ADF8486850B91D496523194A1A487D
:1056280004F0AEF81B4804F0ABF86521EFE7986882
:1056380000B30024884219D108688CB9DC689860E6
:10564800A14200D1D860002008602AB19A680A6097
:10565800DA68996002B9D96000200FE02846E9E7C6
:105668002060D868814208BFDC60ECE70568044622
:10567800002DF3D1002AE9D16FF0150038BD00BF25
:1056880081E8000845E800087EC200088AE80008AA
:1056980099E80008ABE800082DE9F843D0F8049031
:1056A800904607460D46D9F808001E4605F074F9DD
:1056B800B8F5001F044616D1D9F808402846FFF768
:1056C800DBFD84420CD1294605F066F9044605F055
:1056D80068F92046FFF7C2FD00212046FFF76CFD60
:1056E8000020BDE8F883B8F5800F20D0B6F1806FB0
:1056F80019D0B6F1C06F18D0B6F1007F1AD10226C2
:105708003A460F492046FFF78DFDB0B9D9F8081081
:10571800284605F04FF920463146FFF74DFD204653
:10572800FFF724FDDCE70126EAE70326E8E76FF048
:105738008500D6E76FF01500D3E76FF00F00D0E7CC
:105748004D57000870B50B690E460546996809B1B2
:105758000C6801B970BD8A682A4010D04B6863B9DB
:105768000A4989230A4A0B4804F00AF80A4804F04F
:1057780007F88921064803F0FAFF304698471CB11C
:10578800236821461C46E4E72346FAE7C2E80008F6
:1057980045E800087EC20008ABE8000843681B68BB
:1057A80003F1080252E8002F42F0010203F1080059
:1057B80040E800210029F3D1194A934223D0A2F5E9
:1057C8004C4293421FD002F5806293421BD002F5EF
:1057D8008062934217D002F58062934213D002F59B
:1057E800444293420FD0A2F51C4293420BD002F5DB
:1057F8008062934207D002F51C42934203D002F51F
:105808008062934203D15A6842F040025A6053E8DA
:10581800002F42F4807243E800210029F7D1704735
:105828000010014043681B6803F1080252E8002F8A
:1058380022F0010203F1080040E800210029F3D119
:10584800194A934223D0A2F54C4293421FD002F545
:10585800806293421BD002F58062934217D002F512
:105868008062934213D002F5444293420FD0A2F5CE
:105878001C4293420BD002F58062934207D002F596
:105888001C42934203D002F58062934203D15A68C6
:1058980022F040025A6053E8002F22F4807243E855
:1058A80000210029F7D170470010014037B50346A1
:1058B80005680C4639B3406819698368DB6833B3F7
:1058C80001AA9847002820DB2B6823F400432B60AB
:1058D800019B03EB5403B3FBF4F10F2913D989B2ED
:1058E800E960EB680F2B15D80B4940F23D130B4AC2
:1058F8000B4803F045FF0B4803F042FF40F23D110F
:10590800064803F034FF6FF0150003B030BD6FF0A8
:105918005700FAE70020F8E713E90008E4E8000870
:105928007EC2000835E90008F8B50C4603694168ED
:105938001D682379012B18D0A3F1020EDEF10006B1
:1059480046EB0E06B6026279022A96BF474F4FF41D
:10595800005737F81270A279022A09D0042A30D0E9
:10596800003B18BF01231B0306E04FF4C066EAE7BB
:10597800B3FA83F35B091B07E2790968012A0CBFB4
:105988004FF4407C4FF0000CA5421DD10A6822F06C
:10599800805222F4B05232431A430A604B6823F40F
:1059A80040533B434B6043681A68936823F4407341
:1059B80043EA0C03936029684068BDE8F840FFF7A4
:1059C80075BF4FF48053D7E7D1F800E00EF4C06EEE
:1059D800764506D0D1F800E02EF4C06E4EEA0606F1
:1059E8000E6041680E68716801F440518F4204D01E
:1059F800716821F440513943716041680E6831681B
:105A080001F010218B4204D0316821F010210B43A2
:105A18003360436819688B6803F440739C4505D06C
:105A28008B6823F4407343EA0C038B604368D71EEA
:105A38001B687E4299687E41C1F380318E4207D04F
:105A4800032A9A680CBF42F4804222F480429A608A
:105A580021682B68994206D04068FFF727FF08B9EC
:105A680023682B60F8BD0020FCE700BFD8C1000800
:105A78002DE9F341D0F804800746D8F80400D8F897
:105A8800101083681B68002B00F0B0809847051E33
:105A980033DB01AA0021D8F8240005F0ACF8051E74
:105AA8002BDB019B00221979186805F0B6F8051E52
:105AB80023DB7E683B6934681D68236823F0010393
:105AC8002360B06805F0A9FA002800F09280D6E9B2
